:100000001EC02DC02CC02BC02AC029C028C027C0AC
:1000100026C025C024C023C022C021C020C01FC0CC
:1000200031C01DC01CC01BC01AC06FC018C017C093
:1000300016C015C03F065B4F666D7D277F6F11248C
:100040001FBECFEFD2E0DEBFCDBF11E0A0E0B1E038
:1000500001C01D92A732B107E1F795D0FDC2D0CF04
:1000600020E097FF02C0409A01C04098419A419811
:100070002F5F203119F0880F991FF3CF429A4298D1
:10008000439808951F920F920FB60F9211242F9349
:100090003F934F935F936F937F938F939F93AF9310
:1000A000BF93EF93FF9385B191E0892785B9809144
:1000B00020018F5F80932001843010F01092200186
:1000C0004091200150E0FA01EF5DFE4F808190E009
:1000D00020E032E002C0220F331F4A95E2F7822B64
:1000E000932B80959095BCDFFF91EF91BF91AF91DD
:1000F0009F918F917F916F915F914F913F912F9140
:100100000F900FBE0F901F9018951F920F920FB671
:100110000F9211242F933F938F939F93EF93FF930D
:1001200085B192E0892785B92091780030917900D6
:10013000E0E0F1E0828193818193919381E0EE315F
:10014000F807C1F7318320837E9720E030E081916A
:100150009191280F391F81E0E032F807C1F7E4E000
:1001600036952795EA95E1F73093260120932501EE
:10017000FF91EF919F918F913F912F910F900FBE23
:100180000F901F9018958F929F92AF92BF92CF922F
:10019000DF92EF92FF920F931F93CF93DF9320E0B4
:1001A00040EA5FE0CA010197F1F72F5F2436D1F7EB
:1001B0008FE087B988E388B982E08AB98DEF8BB97F
:1001C00083EF84B981EF85B987E480937C008FEA5F
:1001D00080937A0080917A00806480937A0014BCC6
:1001E00083E085BD81E080936E00E4E3F0E08491DC
:1001F00080932101319684918093220131968491DC
:10020000809323013196E491E093240182E4BDD0F0
:10021000789490E2A92E9EE4B92E80E8C82ED12CC5
:1002200000E4902EC8ECD0E019E7812EB0E5EB2E6B
:10023000C5010197F1F780912501909126019695CE
:10024000879596958795F82E8FEC8F1520F088E688
:100250008F1580F511C09092240180912401809324
:1002600023018091230180932201809122018093B8
:100270002101FF24FA943BC080E88F15E8F4109226
:100280002101909222012F2D30E020583040C901E9
:100290006AE070E0BAD1FB01EC5CFF4FE491E093BF
:1002A0002301C9016AE070E0B0D1FC01EC5CFF4FB2
:1002B000E4911BC0F9E6FF2E109221011092220159
:1002C00096012F193109C9016AE070E09ED1FB0146
:1002D000EC5CFF4FE491E0932301C9016AE070E018
:1002E00094D1FC01EC5CFF4FE491E093240110E019
:1002F00000E082E4612F4F2D39D0082B1F5F1630AC
:10030000C1F7002309F494CF88EE93E0FE01319702
:10031000F1F70197D9F71092210180922201E09222
:100320002301E092240188EE93E0FE013197F1F77A
:100330000197D9F77DCFEF92FF920F931F93182F5C
:10034000062FE42ECCD0812F880F00D1F82E802FDD
:10035000FDD0182F8E2DFAD0082F1F29CDD0812F38
:10036000802B1F910F91FF90EF900895403D10F466
:10037000493608F44FEF663008F065E0685DDBDF72
:10038000882311F09CD081E008951F93182F97D0F7
:10039000812F61E040E0CFDF1F910895EF92FF923F
:1003A0000F931F93DF93CF930F92CDB7DEB7182F24
:1003B0007B0195D080E8CAD0110F812F8160C6D013
:1003C0008E010F5F1F4FC80161E0F2D08981F701F4
:1003D00010828183C80160E0EBD0298130E0F70111
:1003E00080819181822B932B9183808385D080E0C3
:1003F0000F90CF91DF911F910F91FF90EF90089593
:10040000DF93CF9300D0CDB7DEB78BE0BE016F5F37
:100410007F4FC4DF29813A813370C9010F900F905B
:10042000CF91DF910895DF93CF9300D0CDB7DEB7A2
:100430008AE0BE016F5F7F4FB1DF89819A810F90A3
:100440000F90CF91DF910895FF920F931F93182F74
:10045000F62E072F44D080E879D0812F880F76D0F0
:10046000802F74D08F2D72D047D080E01F910F91D4
:10047000FF9008950F931F938C0183E0B801E4DF90
:10048000106883E0B801E0DF80E01F910F910895CC
:10049000682F70E06F707070606585E0D5DF80E078
:1004A000089582E061E070E0CFDF84E060E078E012
:1004B000CBDF85E060E570E0C7DF80E0089590E085
:1004C0002AE1239A822F8A95F1F723981B9BFECF6E
:1004D000822F8A95F1F79F5F903199F70895229ABC
:1004E0008AE1982F9A95F1F7239A982F9A95F1F728
:1004F00022988A95F1F70895239A8AE1982F9A9580
:10050000F1F7229A8A95F1F723981B9BFECF8AE197
:10051000982F9A95F1F722988A95F1F70895239AE2
:100520008AE1982F9A95F1F722988A95F1F7239806
:100530001B9BFECF8AE1982F9A95F1F7229A982F6C
:100540009A95F1F7239A8A95F1F70895239A9AE1FB
:100550009A95F1F720E03AE187FF02C0229801C0A6
:10056000229A932F9A95F1F723981B9BFECF932FF6
:100570009A95F1F7239A932F9A95F1F72F5F2830E8
:1005800011F0880FE9CF22988AE18A95F1F7239834
:100590001B9BFECF2AE1822F8A95F1F783B12A9522
:1005A000F1F790E0969587959695879581700895D7
:1005B000FC01239A8AE1982F9A95F1F722988A955F
:1005C000F1F720E090E03AE1220F23981B9BFECF49
:1005D000832F8A95F1F71A992160239A832F8A95A0
:1005E000F1F79F5F983081F7662311F0229A01C0DE
:1005F00022988AE18A95F1F723981B9BFECF8AE126
:100600008A95F1F7208380E0089597FB092E07264D
:100610000AD077FD04D00CD006D000201AF47095D3
:1006200061957F4F0895F6F7909581959F4F0895B6
:10063000AA1BBB1B51E107C0AA1FBB1FA617B70708
:1006400010F0A61BB70B881F991F5A95A9F7809524
:0C0650009095BC01CD010895F894FFCFF7
:00000001FF
